{
  "_format": "hh-sol-artifact-1",
  "contractName": "TestToken",
  "sourceName": "contracts/TestToken.sol",
  "abi": [
    {
      "inputs": [],
      "stateMutability": "nonpayable",
      "type": "constructor"
    },
    {
      "inputs": [
        {
          "internalType": "address",
          "name": "spender",
          "type": "address"
        },
        {
          "internalType": "uint256",
          "name": "allowance",
          "type": "uint256"
        },
        {
          "internalType": "uint256",
          "name": "needed",
          "type": "uint256"
        }
      ],
      "name": "ERC20InsufficientAllowance",
      "type": "error"
    },
    {
      "inputs": [
        {
          "internalType": "address",
          "name": "sender",
          "type": "address"
        },
        {
          "internalType": "uint256",
          "name": "balance",
          "type": "uint256"
        },
        {
          "internalType": "uint256",
          "name": "needed",
          "type": "uint256"
        }
      ],
      "name": "ERC20InsufficientBalance",
      "type": "error"
    },
    {
      "inputs": [
        {
          "internalType": "address",
          "name": "approver",
          "type": "address"
        }
      ],
      "name": "ERC20InvalidApprover",
      "type": "error"
    },
    {
      "inputs": [
        {
          "internalType": "address",
          "name": "receiver",
          "type": "address"
        }
      ],
      "name": "ERC20InvalidReceiver",
      "type": "error"
    },
    {
      "inputs": [
        {
          "internalType": "address",
          "name": "sender",
          "type": "address"
        }
      ],
      "name": "ERC20InvalidSender",
      "type": "error"
    },
    {
      "inputs": [
        {
          "internalType": "address",
          "name": "spender",
          "type": "address"
        }
      ],
      "name": "ERC20InvalidSpender",
      "type": "error"
    },
    {
      "inputs": [
        {
          "internalType": "address",
          "name": "owner",
          "type": "address"
        }
      ],
      "name": "OwnableInvalidOwner",
      "type": "error"
    },
    {
      "inputs": [
        {
          "internalType": "address",
          "name": "account",
          "type": "address"
        }
      ],
      "name": "OwnableUnauthorizedAccount",
      "type": "error"
    },
    {
      "anonymous": false,
      "inputs": [
        {
          "indexed": true,
          "internalType": "address",
          "name": "owner",
          "type": "address"
        },
        {
          "indexed": true,
          "internalType": "address",
          "name": "spender",
          "type": "address"
        },
        {
          "indexed": false,
          "internalType": "uint256",
          "name": "value",
          "type": "uint256"
        }
      ],
      "name": "Approval",
      "type": "event"
    },
    {
      "anonymous": false,
      "inputs": [
        {
          "indexed": false,
          "internalType": "uint256",
          "name": "newPercent",
          "type": "uint256"
        }
      ],
      "name": "MaxWalletBalanceChanged",
      "type": "event"
    },
    {
      "anonymous": false,
      "inputs": [
        {
          "indexed": true,
          "internalType": "address",
          "name": "previousOwner",
          "type": "address"
        },
        {
          "indexed": true,
          "internalType": "address",
          "name": "newOwner",
          "type": "address"
        }
      ],
      "name": "OwnershipTransferred",
      "type": "event"
    },
    {
      "anonymous": false,
      "inputs": [
        {
          "indexed": true,
          "internalType": "address",
          "name": "from",
          "type": "address"
        },
        {
          "indexed": true,
          "internalType": "address",
          "name": "to",
          "type": "address"
        },
        {
          "indexed": false,
          "internalType": "uint256",
          "name": "value",
          "type": "uint256"
        }
      ],
      "name": "Transfer",
      "type": "event"
    },
    {
      "inputs": [
        {
          "internalType": "address",
          "name": "owner",
          "type": "address"
        },
        {
          "internalType": "address",
          "name": "spender",
          "type": "address"
        }
      ],
      "name": "allowance",
      "outputs": [
        {
          "internalType": "uint256",
          "name": "",
          "type": "uint256"
        }
      ],
      "stateMutability": "view",
      "type": "function"
    },
    {
      "inputs": [
        {
          "internalType": "address",
          "name": "spender",
          "type": "address"
        },
        {
          "internalType": "uint256",
          "name": "value",
          "type": "uint256"
        }
      ],
      "name": "approve",
      "outputs": [
        {
          "internalType": "bool",
          "name": "",
          "type": "bool"
        }
      ],
      "stateMutability": "nonpayable",
      "type": "function"
    },
    {
      "inputs": [
        {
          "internalType": "address",
          "name": "account",
          "type": "address"
        }
      ],
      "name": "balanceOf",
      "outputs": [
        {
          "internalType": "uint256",
          "name": "",
          "type": "uint256"
        }
      ],
      "stateMutability": "view",
      "type": "function"
    },
    {
      "inputs": [],
      "name": "decimals",
      "outputs": [
        {
          "internalType": "uint8",
          "name": "",
          "type": "uint8"
        }
      ],
      "stateMutability": "view",
      "type": "function"
    },
    {
      "inputs": [],
      "name": "maxWalletBalancePercent",
      "outputs": [
        {
          "internalType": "uint256",
          "name": "",
          "type": "uint256"
        }
      ],
      "stateMutability": "view",
      "type": "function"
    },
    {
      "inputs": [],
      "name": "name",
      "outputs": [
        {
          "internalType": "string",
          "name": "",
          "type": "string"
        }
      ],
      "stateMutability": "view",
      "type": "function"
    },
    {
      "inputs": [],
      "name": "owner",
      "outputs": [
        {
          "internalType": "address",
          "name": "",
          "type": "address"
        }
      ],
      "stateMutability": "view",
      "type": "function"
    },
    {
      "inputs": [],
      "name": "poolAddress",
      "outputs": [
        {
          "internalType": "address",
          "name": "",
          "type": "address"
        }
      ],
      "stateMutability": "view",
      "type": "function"
    },
    {
      "inputs": [],
      "name": "renounceOwnership",
      "outputs": [],
      "stateMutability": "nonpayable",
      "type": "function"
    },
    {
      "inputs": [
        {
          "internalType": "uint256",
          "name": "newPercent",
          "type": "uint256"
        }
      ],
      "name": "setMaxWalletBalancePercent",
      "outputs": [],
      "stateMutability": "nonpayable",
      "type": "function"
    },
    {
      "inputs": [
        {
          "internalType": "address",
          "name": "_poolAddress",
          "type": "address"
        }
      ],
      "name": "setPoolAddress",
      "outputs": [],
      "stateMutability": "nonpayable",
      "type": "function"
    },
    {
      "inputs": [],
      "name": "symbol",
      "outputs": [
        {
          "internalType": "string",
          "name": "",
          "type": "string"
        }
      ],
      "stateMutability": "view",
      "type": "function"
    },
    {
      "inputs": [],
      "name": "totalSupply",
      "outputs": [
        {
          "internalType": "uint256",
          "name": "",
          "type": "uint256"
        }
      ],
      "stateMutability": "view",
      "type": "function"
    },
    {
      "inputs": [
        {
          "internalType": "address",
          "name": "recipient",
          "type": "address"
        },
        {
          "internalType": "uint256",
          "name": "amount",
          "type": "uint256"
        }
      ],
      "name": "transfer",
      "outputs": [
        {
          "internalType": "bool",
          "name": "",
          "type": "bool"
        }
      ],
      "stateMutability": "nonpayable",
      "type": "function"
    },
    {
      "inputs": [
        {
          "internalType": "address",
          "name": "sender",
          "type": "address"
        },
        {
          "internalType": "address",
          "name": "recipient",
          "type": "address"
        },
        {
          "internalType": "uint256",
          "name": "amount",
          "type": "uint256"
        }
      ],
      "name": "transferFrom",
      "outputs": [
        {
          "internalType": "bool",
          "name": "",
          "type": "bool"
        }
      ],
      "stateMutability": "nonpayable",
      "type": "function"
    },
    {
      "inputs": [
        {
          "internalType": "address",
          "name": "newOwner",
          "type": "address"
        }
      ],
      "name": "transferOwnership",
      "outputs": [],
      "stateMutability": "nonpayable",
      "type": "function"
    }
  ],
  "bytecode": "0x60806040526003600655600780546001600160a01b031916733fc91a3afd70395cd496c647d5a6cc9d4b2b7fad1790553480156200003c57600080fd5b5033604051806040016040528060098152602001682a32b9ba2a37b5b2b760b91b815250604051806040016040528060038152602001621514d560ea1b81525081600390816200008d91906200035e565b5060046200009c82826200035e565b5050506001600160a01b038116620000cf57604051631e4fbdf760e01b8152600060048201526024015b60405180910390fd5b620000da81620000f6565b50620000f03368056bc75e2d6310000062000148565b62000452565b600580546001600160a01b038381166001600160a01b0319831681179093556040519116919082907f8be0079c531659141344cd1fd0a4f28419497f9722a3daafe3b4186f6b6457e090600090a35050565b6001600160a01b038216620001745760405163ec442f0560e01b815260006004820152602401620000c6565b620001826000838362000186565b5050565b6001600160a01b038316620001b5578060026000828254620001a991906200042a565b90915550620002299050565b6001600160a01b038316600090815260208190526040902054818110156200020a5760405163391434e360e21b81526001600160a01b03851660048201526024810182905260448101839052606401620000c6565b6001600160a01b03841660009081526020819052604090209082900390555b6001600160a01b038216620002475760028054829003905562000266565b6001600160a01b03821660009081526020819052604090208054820190555b816001600160a01b0316836001600160a01b03167fddf252ad1be2c89b69c2b068fc378daa952ba7f163c4a11628f55a4df523b3ef83604051620002ac91815260200190565b60405180910390a3505050565b634e487b7160e01b600052604160045260246000fd5b600181811c90821680620002e457607f821691505b6020821081036200030557634e487b7160e01b600052602260045260246000fd5b50919050565b601f8211156200035957600081815260208120601f850160051c81016020861015620003345750805b601f850160051c820191505b81811015620003555782815560010162000340565b5050505b505050565b81516001600160401b038111156200037a576200037a620002b9565b62000392816200038b8454620002cf565b846200030b565b602080601f831160018114620003ca5760008415620003b15750858301515b600019600386901b1c1916600185901b17855562000355565b600085815260208120601f198616915b82811015620003fb57888601518255948401946001909101908401620003da565b50858210156200041a5787850151600019600388901b60f8161c191681555b5050505050600190811b01905550565b808201808211156200044c57634e487b7160e01b600052601160045260246000fd5b92915050565b610c7c80620004626000396000f3fe608060405234801561001057600080fd5b50600436106101005760003560e01c8063715018a611610097578063dd62ed3e11610066578063dd62ed3e14610217578063e038cff914610250578063e9e15b4f14610259578063f2fde38b1461026c57600080fd5b8063715018a6146101e35780638da5cb5b146101eb57806395d89b41146101fc578063a9059cbb1461020457600080fd5b806323b872dd116100d357806323b872dd146101835780632c92293c14610196578063313ce567146101ab57806370a08231146101ba57600080fd5b806306fdde0314610105578063095ea7b3146101235780631755ff211461014657806318160ddd14610171575b600080fd5b61010d61027f565b60405161011a9190610a16565b60405180910390f35b610136610131366004610a80565b610311565b604051901515815260200161011a565b600754610159906001600160a01b031681565b6040516001600160a01b03909116815260200161011a565b6002545b60405190815260200161011a565b610136610191366004610aaa565b61032b565b6101a96101a4366004610ae6565b610424565b005b6040516012815260200161011a565b6101756101c8366004610aff565b6001600160a01b031660009081526020819052604090205490565b6101a96104f8565b6005546001600160a01b0316610159565b61010d61050a565b610136610212366004610a80565b610519565b610175610225366004610b21565b6001600160a01b03918216600090815260016020908152604080832093909416825291909152205490565b61017560065481565b6101a9610267366004610aff565b610607565b6101a961027a366004610aff565b610631565b60606003805461028e90610b54565b80601f01602080910402602001604051908101604052809291908181526020018280546102ba90610b54565b80156103075780601f106102dc57610100808354040283529160200191610307565b820191906000526020600020905b8154815290600101906020018083116102ea57829003601f168201915b5050505050905090565b60003361031f81858561066f565b60019150505b92915050565b600082826103416005546001600160a01b031690565b6001600160a01b0316336001600160a01b03161415801561036d57506007546001600160a01b03163314155b801561038757506007546001600160a01b03838116911614155b1561040f576001600160a01b03821660009081526020819052604081205490506000606460065468056bc75e2d631000006103c29190610ba4565b6103cc9190610bbb565b90508083111580156103e75750806103e48484610bdd565b11155b61040c5760405162461bcd60e51b815260040161040390610bf0565b60405180910390fd5b50505b61041a868686610681565b9695505050505050565b61042c6106a5565b60008111801561043d5750601e8111155b6104bd5760405162461bcd60e51b815260206004820152604560248201527f4d61782077616c6c65742062616c616e63652073686f756c642062652067726560448201527f61746572207468656e207a65726f206f72206c657373206f7220657175616c206064820152640746f2033360dc1b608482015260a401610403565b60068190556040518181527fe67583505d566612fe595b925a22df1fc83d074588f828b23c55cc8b26fe8e5b9060200160405180910390a150565b6105006106a5565b6105086106d2565b565b60606004805461028e90610b54565b6000828261052f6005546001600160a01b031690565b6001600160a01b0316336001600160a01b03161415801561055b57506007546001600160a01b03163314155b801561057557506007546001600160a01b03838116911614155b156105f4576001600160a01b03821660009081526020819052604081205490506000606460065468056bc75e2d631000006105b09190610ba4565b6105ba9190610bbb565b90508083111580156105d55750806105d28484610bdd565b11155b6105f15760405162461bcd60e51b815260040161040390610bf0565b50505b6105fe85856106e4565b95945050505050565b61060f6106a5565b600780546001600160a01b0319166001600160a01b0392909216919091179055565b6106396106a5565b6001600160a01b03811661066357604051631e4fbdf760e01b815260006004820152602401610403565b61066c816106f2565b50565b61067c8383836001610744565b505050565b60003361068f85828561081a565b61069a858585610892565b506001949350505050565b6005546001600160a01b031633146105085760405163118cdaa760e01b8152336004820152602401610403565b6106da6106a5565b61050860006106f2565b60003361031f818585610892565b600580546001600160a01b038381166001600160a01b0319831681179093556040519116919082907f8be0079c531659141344cd1fd0a4f28419497f9722a3daafe3b4186f6b6457e090600090a35050565b6001600160a01b03841661076e5760405163e602df0560e01b815260006004820152602401610403565b6001600160a01b03831661079857604051634a1406b160e11b815260006004820152602401610403565b6001600160a01b038085166000908152600160209081526040808320938716835292905220829055801561081457826001600160a01b0316846001600160a01b03167f8c5be1e5ebec7d5bd14f71427d1e84f3dd0314c0f7b2291e5b200ac8c7c3b9258460405161080b91815260200190565b60405180910390a35b50505050565b6001600160a01b038381166000908152600160209081526040808320938616835292905220546000198114610814578181101561088357604051637dc7a0d960e11b81526001600160a01b03841660048201526024810182905260448101839052606401610403565b61081484848484036000610744565b6001600160a01b0383166108bc57604051634b637e8f60e11b815260006004820152602401610403565b6001600160a01b0382166108e65760405163ec442f0560e01b815260006004820152602401610403565b61067c8383836001600160a01b03831661091757806002600082825461090c9190610bdd565b909155506109899050565b6001600160a01b0383166000908152602081905260409020548181101561096a5760405163391434e360e21b81526001600160a01b03851660048201526024810182905260448101839052606401610403565b6001600160a01b03841660009081526020819052604090209082900390555b6001600160a01b0382166109a5576002805482900390556109c4565b6001600160a01b03821660009081526020819052604090208054820190555b816001600160a01b0316836001600160a01b03167fddf252ad1be2c89b69c2b068fc378daa952ba7f163c4a11628f55a4df523b3ef83604051610a0991815260200190565b60405180910390a3505050565b600060208083528351808285015260005b81811015610a4357858101830151858201604001528201610a27565b506000604082860101526040601f19601f8301168501019250505092915050565b80356001600160a01b0381168114610a7b57600080fd5b919050565b60008060408385031215610a9357600080fd5b610a9c83610a64565b946020939093013593505050565b600080600060608486031215610abf57600080fd5b610ac884610a64565b9250610ad660208501610a64565b9150604084013590509250925092565b600060208284031215610af857600080fd5b5035919050565b600060208284031215610b1157600080fd5b610b1a82610a64565b9392505050565b60008060408385031215610b3457600080fd5b610b3d83610a64565b9150610b4b60208401610a64565b90509250929050565b600181811c90821680610b6857607f821691505b602082108103610b8857634e487b7160e01b600052602260045260246000fd5b50919050565b634e487b7160e01b600052601160045260246000fd5b808202811582820484141761032557610325610b8e565b600082610bd857634e487b7160e01b600052601260045260246000fd5b500490565b8082018082111561032557610325610b8e565b60208082526036908201527f5472616e736665722077696c6c2065786365656420746865206d617820616d6f6040820152751d5b9d08185b1b1bddd959081c195c881dd85b1b195d60521b60608201526080019056fea2646970667358221220968604b7ef0eb23c69a2672d2f9b623ea236fdb45099d45127de014d217b241e64736f6c63430008140033",
  "linkReferences": {},
  "deployedLinkReferences": {}
}